{
  "transactions": [
    {
      "hash": "0xa5fd764511b512d94f1ea2b459f1f0d64b82b7f48b3fb554f89f9be15efd7e83",
      "transactionType": "CALL",
      "contractName": null,
      "contractAddress": "0x1eb7bebf084df8d3961c9647a4ff1e697d4e91d5",
      "function": "permit(uint256,address,bytes,bytes)",
      "arguments": [
        "61489430585420512047590628522400808048359119601265721717299180259965582879091",
        "0x965B0E63e00E7805569ee3B428Cf96330DFc57EF",
        "0xab1dcd2a2a1c697715a62eb6522b7999d04aa952ffa2619988737ee675d9494f2b50ecce40040bcb29b5a8ca1da875968085f22b7c0a50f29a4851396251de121c",
        "0x3f463fc05fdf1908f8bdc2dd213cf0fb44ad73b5983b69e0513ef22b664e09976cacdbb1ef4092ed1824fbf2bd6677e8640b9675f3e457342fdd6f741682a63f1c"
      ],
      "transaction": {
        "from": "0x965b0e63e00e7805569ee3b428cf96330dfc57ef",
        "to": "0x1eb7bebf084df8d3961c9647a4ff1e697d4e91d5",
        "gas": "0x1b2e6",
        "value": "0x0",
        "input": "0xdffd3ac887f1c8cd4c0e19511304b612a9b4996f8c2bd795796636bd25812cd5b0b6a973000000000000000000000000965b0e63e00e7805569ee3b428cf96330dfc57ef000000000000000000000000000000000000000000000000000000000000008000000000000000000000000000000000000000000000000000000000000001000000000000000000000000000000000000000000000000000000000000000041ab1dcd2a2a1c697715a62eb6522b7999d04aa952ffa2619988737ee675d9494f2b50ecce40040bcb29b5a8ca1da875968085f22b7c0a50f29a4851396251de121c0000000000000000000000000000000000000000000000000000000000000000000000000000000000000000000000000000000000000000000000000000413f463fc05fdf1908f8bdc2dd213cf0fb44ad73b5983b69e0513ef22b664e09976cacdbb1ef4092ed1824fbf2bd6677e8640b9675f3e457342fdd6f741682a63f1c00000000000000000000000000000000000000000000000000000000000000",
        "nonce": "0x2ad",
        "chainId": "0xaa36a7"
      },
      "additionalContracts": [],
      "isFixedGasLimit": false
    },
    {
      "hash": "0x55e13b52f5731659ee8311c72a4edfd3ccd95d6ef810babd794ca77c61654de4",
      "transactionType": "CALL",
      "contractName": null,
      "contractAddress": "0x1eb7bebf084df8d3961c9647a4ff1e697d4e91d5",
      "function": "transferFrom(address,address,uint256)",
      "arguments": [
        "0xA11CE84AcB91Ac59B0A4E2945C9157eF3Ab17D4e",
        "0x965B0E63e00E7805569ee3B428Cf96330DFc57EF",
        "10000000000000000000"
      ],
      "transaction": {
        "from": "0x965b0e63e00e7805569ee3b428cf96330dfc57ef",
        "to": "0x1eb7bebf084df8d3961c9647a4ff1e697d4e91d5",
        "gas": "0x13813",
        "value": "0x0",
        "input": "0x23b872dd000000000000000000000000a11ce84acb91ac59b0a4e2945c9157ef3ab17d4e000000000000000000000000965b0e63e00e7805569ee3b428cf96330dfc57ef0000000000000000000000000000000000000000000000008ac7230489e80000",
        "nonce": "0x2ae",
        "chainId": "0xaa36a7"
      },
      "additionalContracts": [],
      "isFixedGasLimit": false
    }
  ],
  "receipts": [
    {
      "status": "0x1",
      "cumulativeGasUsed": "0x1464600",
      "logs": [
        {
          "address": "0x1eb7bebf084df8d3961c9647a4ff1e697d4e91d5",
          "topics": [
            "0x8c5be1e5ebec7d5bd14f71427d1e84f3dd0314c0f7b2291e5b200ac8c7c3b925",
            "0x000000000000000000000000a11ce84acb91ac59b0a4e2945c9157ef3ab17d4e",
            "0x000000000000000000000000965b0e63e00e7805569ee3b428cf96330dfc57ef"
          ],
          "data": "0x87f1c8cd4c0e19511304b612a9b4996f8c2bd795796636bd25812cd5b0b6a973",
          "blockHash": "0x6b751c70f1278cb94a91f4b1b4066f3269a86e11fe087d7fc8502edd2c1a50f6",
          "blockNumber": "0x8d18d4",
          "blockTimestamp": "0x68cf97b4",
          "transactionHash": "0xa5fd764511b512d94f1ea2b459f1f0d64b82b7f48b3fb554f89f9be15efd7e83",
          "transactionIndex": "0x5a",
          "logIndex": "0x6f",
          "removed": false
        }
      ],
      "logsBloom": "0x00000000000000000000000000000000000000000000000000000000040000200000000000000000000000000000000000000000000000000000000000200000000000000002000000000000000004100000000000000000000000000000000000000000000000000000000000000000000010000000000000020000000000000000000000020000000000000000000000000000000000000000000000000000020000000000000000000000000000000000000000000000000000000000000000000040000000000000000000000000000000000000000000000000000000000010000000000000000000000000000000000000000000000000000000000000",
      "type": "0x2",
      "transactionHash": "0xa5fd764511b512d94f1ea2b459f1f0d64b82b7f48b3fb554f89f9be15efd7e83",
      "transactionIndex": "0x5a",
      "blockHash": "0x6b751c70f1278cb94a91f4b1b4066f3269a86e11fe087d7fc8502edd2c1a50f6",
      "blockNumber": "0x8d18d4",
      "gasUsed": "0x13add",
      "effectiveGasPrice": "0xf6a6d",
      "from": "0x965b0e63e00e7805569ee3b428cf96330dfc57ef",
      "to": "0x1eb7bebf084df8d3961c9647a4ff1e697d4e91d5",
      "contractAddress": null
    },
    {
      "status": "0x1",
      "cumulativeGasUsed": "0x128cef2",
      "logs": [
        {
          "address": "0x1eb7bebf084df8d3961c9647a4ff1e697d4e91d5",
          "topics": [
            "0x8c5be1e5ebec7d5bd14f71427d1e84f3dd0314c0f7b2291e5b200ac8c7c3b925",
            "0x000000000000000000000000a11ce84acb91ac59b0a4e2945c9157ef3ab17d4e",
            "0x000000000000000000000000965b0e63e00e7805569ee3b428cf96330dfc57ef"
          ],
          "data": "0x87f1c8cd4c0e19511304b612a9b4996f8c2bd795796636bc9aba09d126cea973",
          "blockHash": "0xec8d962642af9fe88bc9841a695ab57a7d80a1e01cfdbd985d8df5f66ee77b01",
          "blockNumber": "0x8d18d5",
          "blockTimestamp": "0x68cf97c0",
          "transactionHash": "0x55e13b52f5731659ee8311c72a4edfd3ccd95d6ef810babd794ca77c61654de4",
          "transactionIndex": "0x36",
          "logIndex": "0x38",
          "removed": false
        },
        {
          "address": "0x1eb7bebf084df8d3961c9647a4ff1e697d4e91d5",
          "topics": [
            "0xddf252ad1be2c89b69c2b068fc378daa952ba7f163c4a11628f55a4df523b3ef",
            "0x000000000000000000000000a11ce84acb91ac59b0a4e2945c9157ef3ab17d4e",
            "0x000000000000000000000000965b0e63e00e7805569ee3b428cf96330dfc57ef"
          ],
          "data": "0x0000000000000000000000000000000000000000000000008ac7230489e80000",
          "blockHash": "0xec8d962642af9fe88bc9841a695ab57a7d80a1e01cfdbd985d8df5f66ee77b01",
          "blockNumber": "0x8d18d5",
          "blockTimestamp": "0x68cf97c0",
          "transactionHash": "0x55e13b52f5731659ee8311c72a4edfd3ccd95d6ef810babd794ca77c61654de4",
          "transactionIndex": "0x36",
          "logIndex": "0x39",
          "removed": false
        }
      ],
      "logsBloom": "0x00000000000000000000000000000000000000000000000000000000040000200000000000000000000000000000000000000000000000000000000000200000000000000002000000000008000004100000000000000000000000000000000000000000000000000000000000000000000010000000000000020010000000000000000000020000000000000000000000000000000000000000000000000000020000000000000000000000000000000000000000000000000000000000000000000042000000000000000000000000000000000000000000000000000000000010000000000000000000000000000000000000000000000000000000000000",
      "type": "0x2",
      "transactionHash": "0x55e13b52f5731659ee8311c72a4edfd3ccd95d6ef810babd794ca77c61654de4",
      "transactionIndex": "0x36",
      "blockHash": "0xec8d962642af9fe88bc9841a695ab57a7d80a1e01cfdbd985d8df5f66ee77b01",
      "blockNumber": "0x8d18d5",
      "gasUsed": "0xd563",
      "effectiveGasPrice": "0xf68fe",
      "from": "0x965b0e63e00e7805569ee3b428cf96330dfc57ef",
      "to": "0x1eb7bebf084df8d3961c9647a4ff1e697d4e91d5",
      "contractAddress": null
    }
  ],
  "libraries": [],
  "pending": [],
  "returns": {},
  "timestamp": 1758435265636,
  "chain": 11155111,
  "commit": "ed9fc8f"
}