{
  "transactions": [
    {
      "hash": "0x6e235706835694836a22da75ae27148d8c93dbd9de191d3a7997fcfdf51b17b0",
      "transactionType": "CALL",
      "contractName": null,
      "contractAddress": "0x2d0326b922dec4bc95eb2c67bacae5e0487380cb",
      "function": "changeController(uint8,bytes32,bytes32,address)",
      "arguments": [
        "28",
        "0x1932cb842d3e27f54f79f7be0289437381ba2410fdefbae36850bee9c41e3b91",
        "0x87b7639b5f24e93bf106794133370f950d5e9b00f5b5c8cbd866a487529b814f",
        "0x0000000000000000000000000000000000000000"
      ],
      "transaction": {
        "from": "0x965b0e63e00e7805569ee3b428cf96330dfc57ef",
        "to": "0x2d0326b922dec4bc95eb2c67bacae5e0487380cb",
        "gas": "0x1230a",
        "value": "0x0",
        "input": "0x3e8cd570000000000000000000000000000000000000000000000000000000000000001c1932cb842d3e27f54f79f7be0289437381ba2410fdefbae36850bee9c41e3b9187b7639b5f24e93bf106794133370f950d5e9b00f5b5c8cbd866a487529b814f0000000000000000000000000000000000000000000000000000000000000000",
        "nonce": "0x28d",
        "chainId": "0xaa36a7"
      },
      "additionalContracts": [],
      "isFixedGasLimit": false
    }
  ],
  "receipts": [
    {
      "status": "0x1",
      "cumulativeGasUsed": "0x10011ba",
      "logs": [
        {
          "address": "0x2d0326b922dec4bc95eb2c67bacae5e0487380cb",
          "topics": [
            "0x8cf1cbc25758c16f47e27029c8104e5be712c49e9baaf12c1fd697a91b431680",
            "0x0000000000000000000000000000000000000000000000000000000000000000"
          ],
          "data": "0x0000000000000000000000000000000000000000000000000000000067403af0",
          "blockHash": "0x009e45a84da9293519822ac0d818ccf6d105fa6495ffb9e28bc455fcbe350fa7",
          "blockNumber": "0x6cc42d",
          "transactionHash": "0x6e235706835694836a22da75ae27148d8c93dbd9de191d3a7997fcfdf51b17b0",
          "transactionIndex": "0x7a",
          "logIndex": "0x4d",
          "removed": false
        }
      ],
      "logsBloom": "0x00000000000000000000000000000000000000000000000000000000000000000000000000000000000000000000000000000000000000000000000000000000000000000000000000000000000000000000000000200000000000000000000000000000020000001000000000000800000000000000000000400000000000000000000000000000040000000000000000000000000000000000000000000000000000000000000000000000000000000000000000000000000200000000000000000000000000000000000000000000000000000000000000000000000020000000000000000800000000000000000000000000000000000000000000000000",
      "type": "0x2",
      "transactionHash": "0x6e235706835694836a22da75ae27148d8c93dbd9de191d3a7997fcfdf51b17b0",
      "transactionIndex": "0x7a",
      "blockHash": "0x009e45a84da9293519822ac0d818ccf6d105fa6495ffb9e28bc455fcbe350fa7",
      "blockNumber": "0x6cc42d",
      "gasUsed": "0xc701",
      "effectiveGasPrice": "0x14b884ccbc",
      "from": "0x965b0e63e00e7805569ee3b428cf96330dfc57ef",
      "to": "0x2d0326b922dec4bc95eb2c67bacae5e0487380cb",
      "contractAddress": null
    }
  ],
  "libraries": [],
  "pending": [],
  "returns": {},
  "timestamp": 1732262641,
  "chain": 11155111,
  "commit": "6229149"
}