{
  "transactions": [
    {
      "hash": "0x877e6d7b22f02beeda8f4ff1d09066a15517b2dcbece09b1a37fccc900ca6c7d",
      "transactionType": "CALL",
      "contractName": null,
      "contractAddress": "0x812d738c7a142a04d1f6f60ac146a315b2311a62",
      "function": "changeController(uint8,bytes32,bytes32,address)",
      "arguments": [
        "28",
        "0x1932cb842d3e27f54f79f7be0289437381ba2410fdefbae36850bee9c41e3b91",
        "0x87b7639b5f24e93bf106794133370f950d5e9b00f5b5c8cbd866a487529b814f",
        "0x965B0E63e00E7805569ee3B428Cf96330DFc57EF"
      ],
      "transaction": {
        "from": "0x965b0e63e00e7805569ee3b428cf96330dfc57ef",
        "to": "0x812d738c7a142a04d1f6f60ac146a315b2311a62",
        "gas": "0x13fd5",
        "value": "0x0",
        "input": "0x3e8cd570000000000000000000000000000000000000000000000000000000000000001c1932cb842d3e27f54f79f7be0289437381ba2410fdefbae36850bee9c41e3b9187b7639b5f24e93bf106794133370f950d5e9b00f5b5c8cbd866a487529b814f000000000000000000000000965b0e63e00e7805569ee3b428cf96330dfc57ef",
        "nonce": "0x289",
        "chainId": "0xaa36a7"
      },
      "additionalContracts": [],
      "isFixedGasLimit": false
    },
    {
      "hash": "0x945d3ccfaee69d3674a0c974aa3cc3d80eae0ef88e19d2ef6e3704b36dd1af93",
      "transactionType": "CALL",
      "contractName": null,
      "contractAddress": "0x812d738c7a142a04d1f6f60ac146a315b2311a62",
      "function": "open(uint8,bytes32,bytes32)",
      "arguments": [
        "28",
        "0xb5746fddd9f7f07fb109653e1590a5703b9020150dadc71fac7c4037d4d9adc7",
        "0x4d6d9af01c772862f3de040ddc670bf1f6416b735064bd6449024d86f8e428e7"
      ],
      "transaction": {
        "from": "0x965b0e63e00e7805569ee3b428cf96330dfc57ef",
        "to": "0x812d738c7a142a04d1f6f60ac146a315b2311a62",
        "gas": "0x11b5c",
        "value": "0x0",
        "input": "0x259aa240000000000000000000000000000000000000000000000000000000000000001cb5746fddd9f7f07fb109653e1590a5703b9020150dadc71fac7c4037d4d9adc74d6d9af01c772862f3de040ddc670bf1f6416b735064bd6449024d86f8e428e7",
        "nonce": "0x28a",
        "chainId": "0xaa36a7"
      },
      "additionalContracts": [],
      "isFixedGasLimit": false
    }
  ],
  "receipts": [
    {
      "status": "0x1",
      "cumulativeGasUsed": "0xbc7360",
      "logs": [
        {
          "address": "0x812d738c7a142a04d1f6f60ac146a315b2311a62",
          "topics": [
            "0x8cf1cbc25758c16f47e27029c8104e5be712c49e9baaf12c1fd697a91b431680",
            "0x000000000000000000000000965b0e63e00e7805569ee3b428cf96330dfc57ef"
          ],
          "data": "0x00000000000000000000000000000000000000000000000000000000674037fc",
          "blockHash": "0x243ff62622203718d279c096bb37ebac27b053091abb50ead6a863c4babf410f",
          "blockNumber": "0x6cc3f0",
          "transactionHash": "0x877e6d7b22f02beeda8f4ff1d09066a15517b2dcbece09b1a37fccc900ca6c7d",
          "transactionIndex": "0x56",
          "logIndex": "0x83",
          "removed": false
        }
      ],
      "logsBloom": "0x00000000000000000000000000000000000000000000000000000000000000000000000000000000000000000000000000000000000000000000008000000000000000000002000000000000000004100000000000200000000000000000000000000000000000001000000000001000000000000000000000000000000000000000000000000000000000000000000000000000000000000000000000000000000000000000000000000000000000000000000000000008000000000000000000000000000000000000000000000000000000000000000000000000000000000000000000000800000000000000000000000000000000000000000000000000",
      "type": "0x2",
      "transactionHash": "0x877e6d7b22f02beeda8f4ff1d09066a15517b2dcbece09b1a37fccc900ca6c7d",
      "transactionIndex": "0x56",
      "blockHash": "0x243ff62622203718d279c096bb37ebac27b053091abb50ead6a863c4babf410f",
      "blockNumber": "0x6cc3f0",
      "gasUsed": "0xdab1",
      "effectiveGasPrice": "0xb5028a130",
      "from": "0x965b0e63e00e7805569ee3b428cf96330dfc57ef",
      "to": "0x812d738c7a142a04d1f6f60ac146a315b2311a62",
      "contractAddress": null
    },
    {
      "status": "0x1",
      "cumulativeGasUsed": "0xbd928e",
      "logs": [
        {
          "address": "0x812d738c7a142a04d1f6f60ac146a315b2311a62",
          "topics": [
            "0x50042401acb675fedd6dd939fccc629832ce60fa4185df25c01b20e8def195bf",
            "0x000000000000000000000000965b0e63e00e7805569ee3b428cf96330dfc57ef"
          ],
          "data": "0x00000000000000000000000000000000000000000000000000000000674037fc",
          "blockHash": "0x243ff62622203718d279c096bb37ebac27b053091abb50ead6a863c4babf410f",
          "blockNumber": "0x6cc3f0",
          "transactionHash": "0x945d3ccfaee69d3674a0c974aa3cc3d80eae0ef88e19d2ef6e3704b36dd1af93",
          "transactionIndex": "0x58",
          "logIndex": "0x84",
          "removed": false
        }
      ],
      "logsBloom": "0x00000000000000001000000000000000000000000000000000000000000000000000000000200000000000000000000000000000000000000000008000000000000000000002000000000000000004100000000000000000000000000000000000000000000000000000000000001000000000000000000000000000000000000000000000000000000000000000000000000000000000000000000000008000000000000000000000000000000000000000000000000008000000000000000000000000000000000000000000000000000000000000000000000000000000000000000000000000000000000000000000000000000000000000000000000000",
      "type": "0x2",
      "transactionHash": "0x945d3ccfaee69d3674a0c974aa3cc3d80eae0ef88e19d2ef6e3704b36dd1af93",
      "transactionIndex": "0x58",
      "blockHash": "0x243ff62622203718d279c096bb37ebac27b053091abb50ead6a863c4babf410f",
      "blockNumber": "0x6cc3f0",
      "gasUsed": "0xcd26",
      "effectiveGasPrice": "0xb5028a130",
      "from": "0x965b0e63e00e7805569ee3b428cf96330dfc57ef",
      "to": "0x812d738c7a142a04d1f6f60ac146a315b2311a62",
      "contractAddress": null
    }
  ],
  "libraries": [],
  "pending": [],
  "returns": {},
  "timestamp": 1732261886,
  "chain": 11155111,
  "commit": "6229149"
}