{
  "transactions": [
    {
      "hash": "0xeddbae7a3940d18102ad7efd68dd4b645f391a45d701da42682daf46ca9ad2f2",
      "transactionType": "CALL",
      "contractName": null,
      "contractAddress": "0x00c51350c2ee06551c46d9993edf5d80becfa2d5",
      "function": "changeController(uint8,bytes32,bytes32,address)",
      "arguments": [
        "28",
        "0x1932cb842d3e27f54f79f7be0289437381ba2410fdefbae36850bee9c41e3b91",
        "0x87b7639b5f24e93bf106794133370f950d5e9b00f5b5c8cbd866a487529b814f",
        "0x0000000000000000000000000000000000000000"
      ],
      "transaction": {
        "from": "0x965b0e63e00e7805569ee3b428cf96330dfc57ef",
        "to": "0x00c51350c2ee06551c46d9993edf5d80becfa2d5",
        "gas": "0x1230a",
        "value": "0x0",
        "input": "0x3e8cd570000000000000000000000000000000000000000000000000000000000000001c1932cb842d3e27f54f79f7be0289437381ba2410fdefbae36850bee9c41e3b9187b7639b5f24e93bf106794133370f950d5e9b00f5b5c8cbd866a487529b814f0000000000000000000000000000000000000000000000000000000000000000",
        "nonce": "0x291",
        "chainId": "0xaa36a7"
      },
      "additionalContracts": [],
      "isFixedGasLimit": false
    }
  ],
  "receipts": [
    {
      "status": "0x1",
      "cumulativeGasUsed": "0xcad4e9",
      "logs": [
        {
          "address": "0x00c51350c2ee06551c46d9993edf5d80becfa2d5",
          "topics": [
            "0x8cf1cbc25758c16f47e27029c8104e5be712c49e9baaf12c1fd697a91b431680",
            "0x0000000000000000000000000000000000000000000000000000000000000000"
          ],
          "data": "0x000000000000000000000000000000000000000000000000000000006741b994",
          "blockHash": "0x2444e9be99175f7e3c4309897adac4fce6bd94d7e3606ab1847cc3a8a27d993e",
          "blockNumber": "0x6ce223",
          "transactionHash": "0xeddbae7a3940d18102ad7efd68dd4b645f391a45d701da42682daf46ca9ad2f2",
          "transactionIndex": "0x3f",
          "logIndex": "0x39",
          "removed": false
        }
      ],
      "logsBloom": "0x00000000000000000000000000000000000000000000000000000000000000000000000000000000000000000000000000000000000000000000000000000000000000000000000000020000000000000000000000200000000000000000000000000000020000001000000000000800000000000000000000000000000000000000000000000000000000000000000000000000000000000000000000000000000000000000000000000000080000000008000000000000000000000000000000000000000000000000000000000000000000000000000000000000000020000000000000000800000000000000000000000000000000000000000000000000",
      "type": "0x2",
      "transactionHash": "0xeddbae7a3940d18102ad7efd68dd4b645f391a45d701da42682daf46ca9ad2f2",
      "transactionIndex": "0x3f",
      "blockHash": "0x2444e9be99175f7e3c4309897adac4fce6bd94d7e3606ab1847cc3a8a27d993e",
      "blockNumber": "0x6ce223",
      "gasUsed": "0xc701",
      "effectiveGasPrice": "0x33b1cb159",
      "from": "0x965b0e63e00e7805569ee3b428cf96330dfc57ef",
      "to": "0x00c51350c2ee06551c46d9993edf5d80becfa2d5",
      "contractAddress": null
    }
  ],
  "libraries": [],
  "pending": [],
  "returns": {},
  "timestamp": 1732360597,
  "chain": 11155111,
  "commit": "6229149"
}