{
  "transactions": [
    {
      "hash": "0x4c327a5392dd62087d0fff6f1fe45324a5f37dad9bb5853f86448651c8c181b1",
      "transactionType": "CALL",
      "contractName": null,
      "contractAddress": "0x7255b532427cb72259b0be3edc932ab4a49b0853",
      "function": "permit(uint256,address,bytes,bytes)",
      "arguments": [
        "94866497392769580926927015539926326509616308965805536811618684118473913429822",
        "0x965B0E63e00E7805569ee3B428Cf96330DFc57EF",
        "0xdb4e49f74fa7ad845725786bdc8e7c4007739f728c82bb20bcf3fe60097eb14859ce37062271a2156650a0370646e6468ea916b5744c2ada4f5d7ad75638d0eb1c",
        "0xfe3e729a0f148a112ec696024e86e2497f8d3e55db98456c1068f7d2fed7fbeb53fc2b38a056fdbeda5034444b406081ee175a7244045493be27e65aa077086c1b"
      ],
      "transaction": {
        "from": "0x965b0e63e00e7805569ee3b428cf96330dfc57ef",
        "to": "0x7255b532427cb72259b0be3edc932ab4a49b0853",
        "gas": "0x1cc5f",
        "value": "0x0",
        "input": "0xdffd3ac8d1bc88e43bfd26e57f5585849f856be28ab6e33b918f38c4d44589c4da2c6f3e000000000000000000000000965b0e63e00e7805569ee3b428cf96330dfc57ef000000000000000000000000000000000000000000000000000000000000008000000000000000000000000000000000000000000000000000000000000001000000000000000000000000000000000000000000000000000000000000000041db4e49f74fa7ad845725786bdc8e7c4007739f728c82bb20bcf3fe60097eb14859ce37062271a2156650a0370646e6468ea916b5744c2ada4f5d7ad75638d0eb1c000000000000000000000000000000000000000000000000000000000000000000000000000000000000000000000000000000000000000000000000000041fe3e729a0f148a112ec696024e86e2497f8d3e55db98456c1068f7d2fed7fbeb53fc2b38a056fdbeda5034444b406081ee175a7244045493be27e65aa077086c1b00000000000000000000000000000000000000000000000000000000000000",
        "nonce": "0x2c2",
        "chainId": "0xaa36a7"
      },
      "additionalContracts": [],
      "isFixedGasLimit": false
    },
    {
      "hash": "0x4a2a35cb1ea71ff77ec0526107f66bb38a71e4f296eaf5ffb3dad49ea02e5460",
      "transactionType": "CALL",
      "contractName": null,
      "contractAddress": "0x7255b532427cb72259b0be3edc932ab4a49b0853",
      "function": "transferFrom(address,address,uint256)",
      "arguments": [
        "0xA11CE84AcB91Ac59B0A4E2945C9157eF3Ab17D4e",
        "0x965B0E63e00E7805569ee3B428Cf96330DFc57EF",
        "10000000000000000000"
      ],
      "transaction": {
        "from": "0x965b0e63e00e7805569ee3b428cf96330dfc57ef",
        "to": "0x7255b532427cb72259b0be3edc932ab4a49b0853",
        "gas": "0x13813",
        "value": "0x0",
        "input": "0x23b872dd000000000000000000000000a11ce84acb91ac59b0a4e2945c9157ef3ab17d4e000000000000000000000000965b0e63e00e7805569ee3b428cf96330dfc57ef0000000000000000000000000000000000000000000000008ac7230489e80000",
        "nonce": "0x2c3",
        "chainId": "0xaa36a7"
      },
      "additionalContracts": [],
      "isFixedGasLimit": false
    }
  ],
  "receipts": [
    {
      "status": "0x1",
      "cumulativeGasUsed": "0xc305e0",
      "logs": [
        {
          "address": "0x7255b532427cb72259b0be3edc932ab4a49b0853",
          "topics": [
            "0x8c5be1e5ebec7d5bd14f71427d1e84f3dd0314c0f7b2291e5b200ac8c7c3b925",
            "0x000000000000000000000000a11ce84acb91ac59b0a4e2945c9157ef3ab17d4e",
            "0x000000000000000000000000965b0e63e00e7805569ee3b428cf96330dfc57ef"
          ],
          "data": "0xd1bc88e43bfd26e57f5585849f856be28ab6e33b918f38c4d44589c4da2c6f3e",
          "blockHash": "0x2deda3d08414749db59a5a52a79a398bf57b72bce8e2931f8c43d2d18c2bea70",
          "blockNumber": "0x8ddf10",
          "blockTimestamp": "0x68d90f90",
          "transactionHash": "0x4c327a5392dd62087d0fff6f1fe45324a5f37dad9bb5853f86448651c8c181b1",
          "transactionIndex": "0x5d",
          "logIndex": "0x81",
          "removed": false
        }
      ],
      "logsBloom": "0x00000000000000000000000000000000000000000000000000000000000000200000000000000000000000000000000000000000000000000000000000200000000000000002000000000000400004100000000000000000000000000000000000000000000000400000000000000000000010000000000000000000000000000000000000020000000000000000000000000000000000000000000000000000020000000000000000000000000000000000000000000000000000000000000400000000000000000000000000000000000000000000000000000000000000000010000000000000000000000000000000000000000000000000000000000000",
      "type": "0x2",
      "transactionHash": "0x4c327a5392dd62087d0fff6f1fe45324a5f37dad9bb5853f86448651c8c181b1",
      "transactionIndex": "0x5d",
      "blockHash": "0x2deda3d08414749db59a5a52a79a398bf57b72bce8e2931f8c43d2d18c2bea70",
      "blockNumber": "0x8ddf10",
      "gasUsed": "0x13ac9",
      "effectiveGasPrice": "0xf424b",
      "from": "0x965b0e63e00e7805569ee3b428cf96330dfc57ef",
      "to": "0x7255b532427cb72259b0be3edc932ab4a49b0853",
      "contractAddress": null
    },
    {
      "status": "0x1",
      "cumulativeGasUsed": "0xa5fa56",
      "logs": [
        {
          "address": "0x7255b532427cb72259b0be3edc932ab4a49b0853",
          "topics": [
            "0x8c5be1e5ebec7d5bd14f71427d1e84f3dd0314c0f7b2291e5b200ac8c7c3b925",
            "0x000000000000000000000000a11ce84acb91ac59b0a4e2945c9157ef3ab17d4e",
            "0x000000000000000000000000965b0e63e00e7805569ee3b428cf96330dfc57ef"
          ],
          "data": "0xd1bc88e43bfd26e57f5585849f856be28ab6e33b918f38c4497e66c050446f3e",
          "blockHash": "0x1480f26f8b82e7fbb2ddf3db6a3ef08d9e2281bc63a0a05d792f1fb358efe7cd",
          "blockNumber": "0x8ddf11",
          "blockTimestamp": "0x68d90f9c",
          "transactionHash": "0x4a2a35cb1ea71ff77ec0526107f66bb38a71e4f296eaf5ffb3dad49ea02e5460",
          "transactionIndex": "0x41",
          "logIndex": "0x5a",
          "removed": false
        },
        {
          "address": "0x7255b532427cb72259b0be3edc932ab4a49b0853",
          "topics": [
            "0xddf252ad1be2c89b69c2b068fc378daa952ba7f163c4a11628f55a4df523b3ef",
            "0x000000000000000000000000a11ce84acb91ac59b0a4e2945c9157ef3ab17d4e",
            "0x000000000000000000000000965b0e63e00e7805569ee3b428cf96330dfc57ef"
          ],
          "data": "0x0000000000000000000000000000000000000000000000008ac7230489e80000",
          "blockHash": "0x1480f26f8b82e7fbb2ddf3db6a3ef08d9e2281bc63a0a05d792f1fb358efe7cd",
          "blockNumber": "0x8ddf11",
          "blockTimestamp": "0x68d90f9c",
          "transactionHash": "0x4a2a35cb1ea71ff77ec0526107f66bb38a71e4f296eaf5ffb3dad49ea02e5460",
          "transactionIndex": "0x41",
          "logIndex": "0x5b",
          "removed": false
        }
      ],
      "logsBloom": "0x00000000000000000000000000000000000000000000000000000000000000200000000000000000000000000000000000000000000000000000000000200000000000000002000000000008400004100000000000000000000000000000000000000000000000400000000000000000000010000000000000000010000000000000000000020000000000000000000000000000000000000000000000000000020000000000000000000000000000000000000000000000000000000000000400000002000000000000000000000000000000000000000000000000000000000010000000000000000000000000000000000000000000000000000000000000",
      "type": "0x2",
      "transactionHash": "0x4a2a35cb1ea71ff77ec0526107f66bb38a71e4f296eaf5ffb3dad49ea02e5460",
      "transactionIndex": "0x41",
      "blockHash": "0x1480f26f8b82e7fbb2ddf3db6a3ef08d9e2281bc63a0a05d792f1fb358efe7cd",
      "blockNumber": "0x8ddf11",
      "gasUsed": "0xd563",
      "effectiveGasPrice": "0xf424b",
      "from": "0x965b0e63e00e7805569ee3b428cf96330dfc57ef",
      "to": "0x7255b532427cb72259b0be3edc932ab4a49b0853",
      "contractAddress": null
    }
  ],
  "libraries": [],
  "pending": [],
  "returns": {},
  "timestamp": 1759055774826,
  "chain": 11155111,
  "commit": "d075eb7"
}