{
  "transactions": [
    {
      "hash": "0xe00e0570a88444ba83fb0dbf2657d814e30dd457f262c8a9d379853aff74a03a",
      "transactionType": "CALL",
      "contractName": null,
      "contractAddress": "0x40b415d35838e8f79058726ae4ea2fcdf4773c10",
      "function": "permit(uint256,address,bytes,bytes)",
      "arguments": [
        "106733481724552079413840995192944365263996122713560066423495431982265785713600",
        "0x965B0E63e00E7805569ee3B428Cf96330DFc57EF",
        "0x0ab5b8262a97582b1971d68211e37be02ac5d16339cb0278edffc0a465d64aac7b06ed5cd7bc5798089feda2fac7b577ef49e1f2f84a6d2392ff26078f2192a01c",
        "0x4af2dce1bc818f7b7e975a06a3432aaf9f3ba5bfb1ac0cdb2e40ecc429cee95f7b01aa4733fc302dc115c0507f22c5efbf203c7c972ffa90712f2f9f289dc6f01c"
      ],
      "transaction": {
        "from": "0x965b0e63e00e7805569ee3b428cf96330dfc57ef",
        "to": "0x40b415d35838e8f79058726ae4ea2fcdf4773c10",
        "gas": "0x1b2e6",
        "value": "0x0",
        "input": "0xdffd3ac8ebf90284f84cb6e234a8ecf9393afda9c0ede46f4d6df12bd11a4757c42903c0000000000000000000000000965b0e63e00e7805569ee3b428cf96330dfc57ef0000000000000000000000000000000000000000000000000000000000000080000000000000000000000000000000000000000000000000000000000000010000000000000000000000000000000000000000000000000000000000000000410ab5b8262a97582b1971d68211e37be02ac5d16339cb0278edffc0a465d64aac7b06ed5cd7bc5798089feda2fac7b577ef49e1f2f84a6d2392ff26078f2192a01c0000000000000000000000000000000000000000000000000000000000000000000000000000000000000000000000000000000000000000000000000000414af2dce1bc818f7b7e975a06a3432aaf9f3ba5bfb1ac0cdb2e40ecc429cee95f7b01aa4733fc302dc115c0507f22c5efbf203c7c972ffa90712f2f9f289dc6f01c00000000000000000000000000000000000000000000000000000000000000",
        "nonce": "0x2c7",
        "chainId": "0xaa36a7"
      },
      "additionalContracts": [],
      "isFixedGasLimit": false
    },
    {
      "hash": "0x3e6864c8de9d4f197df2d7debe67f5a4cc1df0e9cb6412c5412d38506c54191c",
      "transactionType": "CALL",
      "contractName": null,
      "contractAddress": "0x40b415d35838e8f79058726ae4ea2fcdf4773c10",
      "function": "transferFrom(address,address,uint256)",
      "arguments": [
        "0xA11CE84AcB91Ac59B0A4E2945C9157eF3Ab17D4e",
        "0x965B0E63e00E7805569ee3B428Cf96330DFc57EF",
        "10000000000000000000"
      ],
      "transaction": {
        "from": "0x965b0e63e00e7805569ee3b428cf96330dfc57ef",
        "to": "0x40b415d35838e8f79058726ae4ea2fcdf4773c10",
        "gas": "0x13813",
        "value": "0x0",
        "input": "0x23b872dd000000000000000000000000a11ce84acb91ac59b0a4e2945c9157ef3ab17d4e000000000000000000000000965b0e63e00e7805569ee3b428cf96330dfc57ef0000000000000000000000000000000000000000000000008ac7230489e80000",
        "nonce": "0x2c8",
        "chainId": "0xaa36a7"
      },
      "additionalContracts": [],
      "isFixedGasLimit": false
    }
  ],
  "receipts": [
    {
      "status": "0x1",
      "cumulativeGasUsed": "0x19e6e6a",
      "logs": [
        {
          "address": "0x40b415d35838e8f79058726ae4ea2fcdf4773c10",
          "topics": [
            "0x8c5be1e5ebec7d5bd14f71427d1e84f3dd0314c0f7b2291e5b200ac8c7c3b925",
            "0x000000000000000000000000a11ce84acb91ac59b0a4e2945c9157ef3ab17d4e",
            "0x000000000000000000000000965b0e63e00e7805569ee3b428cf96330dfc57ef"
          ],
          "data": "0xebf90284f84cb6e234a8ecf9393afda9c0ede46f4d6df12bd11a4757c42903c0",
          "blockHash": "0x31ad84414350e71c25da1519a45b7da2ed23914dbd57a714a308ccff02d51daf",
          "blockNumber": "0x8e85b4",
          "blockTimestamp": "0x68e0ed98",
          "transactionHash": "0xe00e0570a88444ba83fb0dbf2657d814e30dd457f262c8a9d379853aff74a03a",
          "transactionIndex": "0x60",
          "logIndex": "0xb3",
          "removed": false
        }
      ],
      "logsBloom": "0x00000000000000000000000000000000000000000000000000000000000000200000000000000000000000000000000000000000000000000000000000200000000000000002000000000000000004100000000000000000000000200000000000000000000200000000000000000000000010000000000000000000000000000000000000020000000000000000000000000000000000000000000000000000020000000000000000000000000000000000000000000000000000000000000000000000000000000000000000000000000000000200000000000000000000000010000000000000000000000000000000000000000000000000000000000000",
      "type": "0x2",
      "transactionHash": "0xe00e0570a88444ba83fb0dbf2657d814e30dd457f262c8a9d379853aff74a03a",
      "transactionIndex": "0x60",
      "blockHash": "0x31ad84414350e71c25da1519a45b7da2ed23914dbd57a714a308ccff02d51daf",
      "blockNumber": "0x8e85b4",
      "gasUsed": "0x13add",
      "effectiveGasPrice": "0xf427a",
      "from": "0x965b0e63e00e7805569ee3b428cf96330dfc57ef",
      "to": "0x40b415d35838e8f79058726ae4ea2fcdf4773c10",
      "contractAddress": null
    },
    {
      "status": "0x1",
      "cumulativeGasUsed": "0xe4d9d7",
      "logs": [
        {
          "address": "0x40b415d35838e8f79058726ae4ea2fcdf4773c10",
          "topics": [
            "0x8c5be1e5ebec7d5bd14f71427d1e84f3dd0314c0f7b2291e5b200ac8c7c3b925",
            "0x000000000000000000000000a11ce84acb91ac59b0a4e2945c9157ef3ab17d4e",
            "0x000000000000000000000000965b0e63e00e7805569ee3b428cf96330dfc57ef"
          ],
          "data": "0xebf90284f84cb6e234a8ecf9393afda9c0ede46f4d6df12b465324533a4103c0",
          "blockHash": "0x1823fc5ff6f5a6a8a732cea76b70f8695e2486997ac10cd3cffa13788983026f",
          "blockNumber": "0x8e85b5",
          "blockTimestamp": "0x68e0eda4",
          "transactionHash": "0x3e6864c8de9d4f197df2d7debe67f5a4cc1df0e9cb6412c5412d38506c54191c",
          "transactionIndex": "0x53",
          "logIndex": "0xcc",
          "removed": false
        },
        {
          "address": "0x40b415d35838e8f79058726ae4ea2fcdf4773c10",
          "topics": [
            "0xddf252ad1be2c89b69c2b068fc378daa952ba7f163c4a11628f55a4df523b3ef",
            "0x000000000000000000000000a11ce84acb91ac59b0a4e2945c9157ef3ab17d4e",
            "0x000000000000000000000000965b0e63e00e7805569ee3b428cf96330dfc57ef"
          ],
          "data": "0x0000000000000000000000000000000000000000000000008ac7230489e80000",
          "blockHash": "0x1823fc5ff6f5a6a8a732cea76b70f8695e2486997ac10cd3cffa13788983026f",
          "blockNumber": "0x8e85b5",
          "blockTimestamp": "0x68e0eda4",
          "transactionHash": "0x3e6864c8de9d4f197df2d7debe67f5a4cc1df0e9cb6412c5412d38506c54191c",
          "transactionIndex": "0x53",
          "logIndex": "0xcd",
          "removed": false
        }
      ],
      "logsBloom": "0x00000000000000000000000000000000000000000000000000000000000000200000000000000000000000000000000000000000000000000000000000200000000000000002000000000008000004100000000000000000000000200000000000000000000200000000000000000000000010000000000000000010000000000000000000020000000000000000000000000000000000000000000000000000020000000000000000000000000000000000000000000000000000000000000000000002000000000000000000000000000000000200000000000000000000000010000000000000000000000000000000000000000000000000000000000000",
      "type": "0x2",
      "transactionHash": "0x3e6864c8de9d4f197df2d7debe67f5a4cc1df0e9cb6412c5412d38506c54191c",
      "transactionIndex": "0x53",
      "blockHash": "0x1823fc5ff6f5a6a8a732cea76b70f8695e2486997ac10cd3cffa13788983026f",
      "blockNumber": "0x8e85b5",
      "gasUsed": "0xd563",
      "effectiveGasPrice": "0xf427b",
      "from": "0x965b0e63e00e7805569ee3b428cf96330dfc57ef",
      "to": "0x40b415d35838e8f79058726ae4ea2fcdf4773c10",
      "contractAddress": null
    }
  ],
  "libraries": [],
  "pending": [],
  "returns": {},
  "timestamp": 1759571365697,
  "chain": 11155111,
  "commit": "2f576f9"
}